{
  "_format": "hh-sol-artifact-1",
  "contractName": "PreOrdering",
  "sourceName": "contracts/PreOrdering.sol",
  "abi": [
    {
      "anonymous": false,
      "inputs": [
        {
          "indexed": true,
          "internalType": "address",
          "name": "previousGovernor",
          "type": "address"
        },
        {
          "indexed": true,
          "internalType": "address",
          "name": "newGovernor",
          "type": "address"
        }
      ],
      "name": "GovernorshipTransferred",
      "type": "event"
    },
    {
      "anonymous": false,
      "inputs": [
        {
          "indexed": false,
          "internalType": "uint8",
          "name": "version",
          "type": "uint8"
        }
      ],
      "name": "Initialized",
      "type": "event"
    },
    {
      "inputs": [
        {
          "internalType": "string",
          "name": "name",
          "type": "string"
        },
        {
          "internalType": "address",
          "name": "token",
          "type": "address"
        }
      ],
      "name": "allowPayableToken",
      "outputs": [],
      "stateMutability": "nonpayable",
      "type": "function"
    },
    {
      "inputs": [],
      "name": "getDepositAmount",
      "outputs": [
        {
          "internalType": "uint256",
          "name": "",
          "type": "uint256"
        }
      ],
      "stateMutability": "view",
      "type": "function"
    },
    {
      "inputs": [],
      "name": "getDepositTotal",
      "outputs": [
        {
          "internalType": "uint256",
          "name": "",
          "type": "uint256"
        }
      ],
      "stateMutability": "view",
      "type": "function"
    },
    {
      "inputs": [],
      "name": "getUnitPrice",
      "outputs": [
        {
          "internalType": "uint256",
          "name": "",
          "type": "uint256"
        }
      ],
      "stateMutability": "view",
      "type": "function"
    },
    {
      "inputs": [
        {
          "internalType": "address",
          "name": "from",
          "type": "address"
        }
      ],
      "name": "getUserDepositAmount",
      "outputs": [
        {
          "internalType": "uint256",
          "name": "",
          "type": "uint256"
        }
      ],
      "stateMutability": "view",
      "type": "function"
    },
    {
      "inputs": [
        {
          "internalType": "address",
          "name": "from",
          "type": "address"
        }
      ],
      "name": "getUserDepositTotal",
      "outputs": [
        {
          "internalType": "uint256",
          "name": "",
          "type": "uint256"
        }
      ],
      "stateMutability": "view",
      "type": "function"
    },
    {
      "inputs": [],
      "name": "governor",
      "outputs": [
        {
          "internalType": "address",
          "name": "",
          "type": "address"
        }
      ],
      "stateMutability": "view",
      "type": "function"
    },
    {
      "inputs": [
        {
          "internalType": "uint256",
          "name": "price",
          "type": "uint256"
        }
      ],
      "name": "initialize",
      "outputs": [],
      "stateMutability": "nonpayable",
      "type": "function"
    },
    {
      "inputs": [
        {
          "internalType": "string",
          "name": "token",
          "type": "string"
        },
        {
          "internalType": "uint32",
          "name": "amount",
          "type": "uint32"
        }
      ],
      "name": "order",
      "outputs": [],
      "stateMutability": "nonpayable",
      "type": "function"
    },
    {
      "inputs": [],
      "name": "pause",
      "outputs": [],
      "stateMutability": "nonpayable",
      "type": "function"
    },
    {
      "inputs": [],
      "name": "renounceGovernorship",
      "outputs": [],
      "stateMutability": "nonpayable",
      "type": "function"
    },
    {
      "inputs": [],
      "name": "resume",
      "outputs": [],
      "stateMutability": "nonpayable",
      "type": "function"
    },
    {
      "inputs": [
        {
          "internalType": "uint256",
          "name": "price",
          "type": "uint256"
        }
      ],
      "name": "setUnitPrice",
      "outputs": [],
      "stateMutability": "nonpayable",
      "type": "function"
    },
    {
      "inputs": [
        {
          "internalType": "address",
          "name": "newGovernor",
          "type": "address"
        }
      ],
      "name": "transferGovernorship",
      "outputs": [],
      "stateMutability": "nonpayable",
      "type": "function"
    },
    {
      "inputs": [
        {
          "internalType": "string",
          "name": "name",
          "type": "string"
        },
        {
          "internalType": "address",
          "name": "to",
          "type": "address"
        }
      ],
      "name": "withdrawPayableToken",
      "outputs": [],
      "stateMutability": "nonpayable",
      "type": "function"
    }
  ],
  "bytecode": "0x608060405234801561001057600080fd5b50610e14806100206000396000f3fe608060405234801561001057600080fd5b50600436106100f55760003560e01c80635eefdd2b11610097578063995738181161006657806399573818146101ca578063b6aa515b146101dd578063dc1b7328146101f0578063fe4b84df1461020357600080fd5b80635eefdd2b146101825780637d96f6931461019a57806381c0c263146101ba5780638456cb59146101c257600080fd5b80630c921155116100d35780630c921155146101365780630cec2a7614610149578063177783371461015c578063323942391461016f57600080fd5b8063012a33aa146100fa578063046f7da2146101115780630c340a241461011b575b600080fd5b6099545b6040519081526020015b60405180910390f35b610119610216565b005b6065546040516001600160a01b039091168152602001610108565b6100fe610144366004610b26565b610255565b6100fe610157366004610b26565b6102a5565b61011961016a366004610b91565b6102f9565b61011961017d366004610bf1565b610345565b336000908152609760205260409020600101546100fe565b33600090815260976020526040902054610100900463ffffffff166100fe565b6101196103b6565b6101196103ec565b6101196101d8366004610bf1565b610425565b6101196101eb366004610b26565b6105d7565b6101196101fe366004610c45565b610652565b610119610211366004610c45565b610681565b6065546001600160a01b031633146102495760405162461bcd60e51b815260040161024090610c5e565b60405180910390fd5b609a805460ff19169055565b6065546000906001600160a01b031633146102825760405162461bcd60e51b815260040161024090610c5e565b506001600160a01b0381166000908152609760205260409020600101545b919050565b6065546000906001600160a01b031633146102d25760405162461bcd60e51b815260040161024090610c5e565b506001600160a01b0316600090815260976020526040902054610100900463ffffffff1690565b609a5460ff16156103355760405162461bcd60e51b815260206004820152600660248201526514105554d15160d21b6044820152606401610240565b61034083838361070e565b505050565b6065546001600160a01b0316331461036f5760405162461bcd60e51b815260040161024090610c5e565b8060988484604051610382929190610c85565b90815260405190819003602001902080546001600160a01b03929092166001600160a01b0319909216919091179055505050565b6065546001600160a01b031633146103e05760405162461bcd60e51b815260040161024090610c5e565b6103ea6000610979565b565b6065546001600160a01b031633146104165760405162461bcd60e51b815260040161024090610c5e565b609a805460ff19166001179055565b600260335414156104785760405162461bcd60e51b815260206004820152601f60248201527f5265656e7472616e637947756172643a207265656e7472616e742063616c6c006044820152606401610240565b60026033556065546001600160a01b031633146104a75760405162461bcd60e51b815260040161024090610c5e565b6000609884846040516104bb929190610c85565b908152604051908190036020018120546370a0823160e01b82523060048301526001600160a01b0316915060009082906370a082319060240160206040518083038186803b15801561050c57600080fd5b505afa158015610520573d6000803e3d6000fd5b505050506040513d601f19601f820116820180604052508101906105449190610c95565b60405163a9059cbb60e01b81526001600160a01b038581166004830152602482018390529192509083169063a9059cbb90604401602060405180830381600087803b15801561059257600080fd5b505af11580156105a6573d6000803e3d6000fd5b505050506040513d601f19601f820116820180604052508101906105ca9190610cae565b5050600160335550505050565b6065546001600160a01b031633146106015760405162461bcd60e51b815260040161024090610c5e565b6001600160a01b0381166106465760405162461bcd60e51b815260206004820152600c60248201526b5a45524f5f4144445245535360a01b6044820152606401610240565b61064f81610979565b50565b6065546001600160a01b0316331461067c5760405162461bcd60e51b815260040161024090610c5e565b609955565b600061068d60016109cb565b905080156106a5576000805461ff0019166101001790555b6106ad610a53565b6106b5610a82565b6099829055609a805460ff19169055801561070a576000805461ff0019169055604051600181527f7f26b83ff96e1f2b6a682f133852f6798a09c465da95921460cefb38474024989060200160405180910390a15b5050565b60008163ffffffff16116107555760405162461bcd60e51b815260206004820152600e60248201526d1253959053125117d05353d5539560921b6044820152606401610240565b60006099548263ffffffff1661076b9190610ce6565b90506098848460405161077f929190610c85565b908152604051908190036020019020546001600160a01b03166323b872dd6107a43390565b6040516001600160e01b031960e084901b1681526001600160a01b03909116600482015230602482015260448101849052606401602060405180830381600087803b1580156107f257600080fd5b505af1158015610806573d6000803e3d6000fd5b505050506040513d601f19601f8201168201806040525081019061082a9190610cae565b6108675760405162461bcd60e51b815260206004820152600e60248201526d2a2920a729a322a92fa2a92927a960911b6044820152606401610240565b3360009081526097602052604090205460ff16156109135733600090815260976020526040902080548391906001906108ac908490610100900463ffffffff16610d05565b92506101000a81548163ffffffff021916908363ffffffff16021790555080609760006108d63390565b6001600160a01b03166001600160a01b0316815260200190815260200160002060010160008282546109089190610d2d565b909155506109739050565b60408051606081018252600180825263ffffffff8581166020808501918252848601878152336000908152609790925295902093518454915164ffffffffff1990921690151564ffffffff00191617610100919092160217825591519101555b50505050565b606580546001600160a01b038381166001600160a01b0319831681179093556040519116919082907fc7c0c772add429241571afb3805861fb3cfa2af374534088b76cdb4325a87e9a90600090a35050565b60008054610100900460ff1615610a12578160ff1660011480156109ee5750303b155b610a0a5760405162461bcd60e51b815260040161024090610d45565b506000919050565b60005460ff808416911610610a395760405162461bcd60e51b815260040161024090610d45565b506000805460ff191660ff92909216919091179055600190565b600054610100900460ff16610a7a5760405162461bcd60e51b815260040161024090610d93565b6103ea610ab1565b600054610100900460ff16610aa95760405162461bcd60e51b815260040161024090610d93565b6103ea610ae1565b600054610100900460ff16610ad85760405162461bcd60e51b815260040161024090610d93565b6103ea33610979565b600054610100900460ff16610b085760405162461bcd60e51b815260040161024090610d93565b6001603355565b80356001600160a01b03811681146102a057600080fd5b600060208284031215610b3857600080fd5b610b4182610b0f565b9392505050565b60008083601f840112610b5a57600080fd5b50813567ffffffffffffffff811115610b7257600080fd5b602083019150836020828501011115610b8a57600080fd5b9250929050565b600080600060408486031215610ba657600080fd5b833567ffffffffffffffff811115610bbd57600080fd5b610bc986828701610b48565b909450925050602084013563ffffffff81168114610be657600080fd5b809150509250925092565b600080600060408486031215610c0657600080fd5b833567ffffffffffffffff811115610c1d57600080fd5b610c2986828701610b48565b9094509250610c3c905060208501610b0f565b90509250925092565b600060208284031215610c5757600080fd5b5035919050565b6020808252600d908201526c474f5645524e4f525f4f4e4c5960981b604082015260600190565b8183823760009101908152919050565b600060208284031215610ca757600080fd5b5051919050565b600060208284031215610cc057600080fd5b81518015158114610b4157600080fd5b634e487b7160e01b600052601160045260246000fd5b6000816000190483118215151615610d0057610d00610cd0565b500290565b600063ffffffff808316818516808303821115610d2457610d24610cd0565b01949350505050565b60008219821115610d4057610d40610cd0565b500190565b6020808252602e908201527f496e697469616c697a61626c653a20636f6e747261637420697320616c72656160408201526d191e481a5b9a5d1a585b1a5e995960921b606082015260800190565b6020808252602b908201527f496e697469616c697a61626c653a20636f6e7472616374206973206e6f74206960408201526a6e697469616c697a696e6760a81b60608201526080019056fea2646970667358221220e64b7fe5775d2560a60e705b0e5d22f18af90af1c551984bc5f72970ddc0ec2b64736f6c63430008090033",
  "linkReferences": {},
  "deployedLinkReferences": {}
}